:02000002B0004C
:1040000000400B000A500B00000006000C000502E7
:084010000401B41400000000DB
:04401800344D0B0018
:10401C00034613F8012B002AFBD1181A01387047FC
:10402C0009480A49884208B505D0094A824202D09B
:10403C00121A00F0CFFD0748074A0021121A00F0AF
:10404C00D7FD014808BD00BF64E60320704F0B008C
:10405C00D0E60320D0E60320F0E7032070B5074E2E
:10406C00074C00F0F3FAA41BA4080025AC4200D1C5
:10407C0070BD56F8043B98470135F7E7284F0B0005
:10408C004C4F0B0000F013B808B500F024F8BDE855
:10409C00084000F093BA00F095B900F09BB9007895
:1040AC00B0FA80F04009704701230370704708B5DF
:1040BC0000F0D8FB4FF4165100F0C4FB00F05EFD8D
:1040CC004FF4165100F04AFC00F0CCFB00F0BEFBA4
:1040DC000028F9D008BD10B500F0C4FB03681B69BB
:1040EC00984750B100F0BEFB03685B6998470446E3
:1040FC0000F044FDE1B200F005FA00F03FFD03686A
:10410C001B69984760B100F039FD03685B699847FB
:10411C00044600F0A7FBE1B2BDE8104000F0F2B994
:10412C0010BD000010B5074B074A9A600024C3E984
:10413C000044032000F0BAF821460120BDE81040ED
:10414C0000F0BCB8D0E603200000FFFF08B5024B1E
:10415C001B689B68019308BD6802030008B5024BFD
:10416C001B68DB68019308BD6802030008B5024BAD
:10417C001B685B68019308BD1802030008B5024B6D
:10418C001B685B69019308BD1802030008B5024B5C
:10419C001B685B6C019308BD4802030008B5024B19
:1041AC001B685B69019308BD6402030008B5024BF0
:1041BC001B68DB68019308BD3C02030008B5024B89
:1041CC001B681B69019308BD3C02030008B5024B38
:1041DC001B685B69019308BD3C02030008B5024BE8
:1041EC001B689B69019308BD3C02030008B5024B98
:1041FC001B68DB69019308BD3C02030008B5024B48
:10420C001B689B6A019308BD3C02030008B5024B76
:10421C001B68DB6A019308BD3C02030008B5024B26
:10422C001B681B6C019308BD3C02030008B5024BD4
:10423C001B681B68019308BD4C02030008B5024BB8
:10424C001B685B68019308BD4C02030008B5024B68
:10425C001B681B69019308BD4C02030008B5024B97
:10426C001B685B69019308BD4C02030008B5024B47
:10427C001B689B69019308BD4C02030008B5024BF7
:10428C001B68DB69019308BD4C02030008B5024BA7
:10429C001B681B6A019308BD4C02030008B5024B56
:1042AC001B689B6A019308BD4C02030008B5024BC6
:1042BC001B685B68019308BD2002030008B5024B24
:1042CC001B68DB6A019308BD2002030008B5034B91
:1042DC001B68D3F88830019308BD0000200203004E
:1042EC0008B5034B1B68D3F89430019308BD00004C
:1042FC002002030008B5024B1B685B68019308BDE4
:10430C004002030008B5024B1B689B68019308BD73
:10431C004002030008B5024B1B68DB68019308BD23
:10432C004002030008B5024B1B681B69019308BDD2
:10433C004002030008B5024B1B685B69019308BD82
:10434C004002030008B5024B1B689B69019308BD32
:10435C004002030008B5024B1B68DB69019308BDE2
:10436C004002030008B5024B1B681B6A019308BD91
:10437C004002030008B5024B1B681B6B019308BD80
:10438C004002030008B5024B1B685B6B019308BD30
:10439C004002030008B5024B1B681B6C019308BD5F
:1043AC004002030008B5024B1B685B6C019308BD0F
:1043BC004002030008B5024B1B68DB6B019308BD80
:1043CC004402030008B5024B1B681B68019308BD2F
:1043DC001C02030008B5024B1B685B68019308BD07
:1043EC001C02030008B5024B1B681B6C019308BD33
:1043FC001C02030008B5024B1B685B6C019308BDE3
:10440C001C020300002240681146FFF7ABBF0022DC
:10441C0040681146FFF7B6BF40680022FFF7AABFFD
:10442C004068002281F00101FFF794BF002340682F
:10443C001A461946FFF786BF002340681A461946EC
:10444C00FFF778BF002240681146FFF76BBF0022D0
:10445C0040681146FFF756BF406800220221FFF763
:10446C0059BF002340681A46FFF744BF024B032292
:10447C005A60024A1A607047DCE60320504D0B006C
:10448C00054B02221A60054B054A9A600020C3E9CD
:10449C000000FFF70BBF00BFF0E60320E4E60320AB
:1044AC000000FFFF024800230360FFF76FBE00BF50
:1044BC00F4E60320F8B506460D468F180024BD42DD
:1044CC000CD0336815F8011B9B6830469847031EC7
:1044DC0001DB1C44F3E7002C08BF1C462046F8BD4A
:1044EC0013B50446084659B10191FFF791FD2368B5
:1044FC000199DB680246204602B0BDE8104018471F
:10450C0002B010BD03689B68184730B58BB0002310
:10451C00012A8DF8243098BF0A2209AC0D46B1FB54
:10452C00F2F101FB125303F0FF03092B94BF30335C
:10453C003733DBB2AA4204F8013DEFD92146FFF72D
:10454C00CFFF0BB030BD0000014B024A1A60704720
:10455C00F8E60320844D0B00024B1A68024B1A60DC
:10456C00704700BF64E60320FCE60320014B0022E9
:10457C009A60704700E70320014B1860704700BF3A
:10458C0068E6032008B50B4B43B100F06BF90368E8
:10459C001B699847002801DDAFF30080064B43B13F
:1045AC0000F0ECFA03681B699847002801DDAFF3B3
:1045BC00008008BD000000000000000008B5FFF7F7
:1045CC00E1FFFFF7DBFD014B186008BD58E7032046
:1045DC000548064A064908B5121A00F0FBFA054BC5
:1045EC00054A1A6008BD00BF00F4032004F4032040
:1045FC00DC4F0B0000F403201E1C279A07B5002388
:10460C0000931A466FF07701FFF76AFE03B05DF86E
:10461C0004FB000007B543880A2B08D0502B0BD1A4
:10462C00094B1B684BB103B05DF804EB1847FFF75F
:10463C00E5FF03B05DF804FB002300931A466FF00E
:10464C007701FFF74DFEF4E714E7032010B512488D
:10465C000021FFF7CFFE114B1A68114B9A42114BF8
:10466C000CBF012200221A7001D0FFF7B1FFFFF737
:10467C007DFD044600F0C4FA0B4B13B12046AFF39A
:10468C00008000210848FFF795FEBDE81040074860
:10469C000021FFF71BBE00BF85450B0000F4032073
:1046AC001E1C279A10E703200000000021460B0077
:1046BC00704710B518210446FFF7EFFC204610BDDB
:1046CC00F0B5037D062B8DB00E4600F104074FF0BC
:1046DC00000412D000F1080515F8011D0A2230461D
:1046EC00FFF713FFAF42044419D0002CF4D02E2155
:1046FC003046FFF707FF0444EEE72F236A4639469E
:10470C000A208DF80040FFF749FD6846FFF780FC52
:10471C0033680246DB6869463046984704462046B3
:10472C000DB0F0BD10B5054B0446112240F8043B0A
:10473C00002100F05DFA204610BD00BFAC4D0B000F
:10474C000346074A10B543F8042B01F1100251F847
:10475C00044B43F8044B9142F9D10A781A7010BDFE
:10476C00AC4D0B0010B59DF8084044EA032343EA16
:10477C00024242EA016104234160037510BD00004E
:10478C0007B5064B0360CB7800938B784A78097891
:10479C00FFF7E8FF03B05DF804FB00BFAC4D0B0066
:1047AC00417470477047704708B50021007CFFF7D3
:1047BC005DFD40EAE07008BD08B50121007CFFF703
:1047CC0055FD40EAE07008BD08B5007CFFF746FDDA
:1047DC0020EAE07008BD08B5007CFFF737FD20EA41
:1047EC00E07008BD13B50446007C0191FFF736FD5F
:1047FC000028019901DC607C20B1207CFFF73EFD94
:10480C0020EAE07002B010BD007CFFF73FBD10B590
:10481C0014210446FFF741FC204610BD10B54FF49F
:10482C007A73044608460021C4E90113044B236043
:10483C000123207463741146FFF7F8FC204610BD69
:10484C00C04D0B00007C0022FFF7F8BC007CFFF78A
:10485C0025BD10B514220446002100F0C9F92046EC
:10486C0010BD000010B50F4C88B003A8FFF7F1FF86
:10487C002178BFF35B8F11F001010FD1204601911C
:10488C00FFF70DFC019948B103AA0748FFF7C6FFD3
:10489C002046FFF709FC054800F096F9024808B0DD
:1048AC0010BD00BF18E703201CE70320B1470B0025
:1048BC0070474174704708B5007CFFF79FFC20EAF5
:1048CC00E07008BD08B5007CFFF778FC20EAE070CA
:1048DC0008BD08B5007CFFF781FC40EAE07008BD1C
:1048EC0008B5007CFFF772FC40EAE07008BD007C64
:1048FC00FFF77CBC37B5457C04462DB1207C03B05A
:10490C00BDE83040FFF752BC007C0191FFF776FC0C
:10491C0000280199F2DC284603B030BD10B51421F3
:10492C000446FFF7BAFB204610BD000010B54FF44B
:10493C007A730446084611460022C4E90123044B4D
:10494C002360012320746374FFF768FC204610BDBC
:10495C00F04D0B00007C0023FFF758BC0022FFF742
:10496C00F9BF002240681146FFF7DCBC002240680A
:10497C001146FFF7F7BC002240681146FFF702BD55
:10498C0040680022FFF7F6BC4068002281F001016C
:10499C00FFF7E0BC002340681A461946FFF7D2BC6B
:1049AC00002340681A461946FFF7C4BC0022406831
:1049BC001146FFF7A7BC406800220221FFF7AABCF2
:1049CC00002340681A46FFF795BC0000024B0422F6
:1049DC005A60024A1A60704730E70320204E0B00E1
:1049EC00002340681A46FFF785BC4068002202216C
:1049FC00FFF790BC002240681146FFF783BC0022F1
:104A0C0040681146FFF78EBC002340681A461946D1
:104A1C00FFF790BC002340681A461946FFF792BC7A
:104A2C0040680021FFF7B6BC40680021FFF7BABC14
:104A3C004068002281F00101FFF78CBC4068002225
:104A4C00FFF798BC002240681146FFF79BBC002280
:104A5C0040681146FFF786BC2DE9F04395B014462B
:104A6C000D460746FFF75EFE00211C220DA80091A3
:104A7C0000F0BEF840230C9320466B460CAA002194
:104A8C00FFF76CFB044600284BD1024601216868F5
:104A9C00FFF748FC0221804622466868FFF742FC7B
:104AAC00009E81462146002E3BD0002939D17368E7
:104ABC00022B03D00A2B11D0F669F4E7B8F1000FE2
:104ACC00FAD0716906A8043107ADFFF759FE0FCD76
:104ADC003C1D0FC42B6823704146EDE7B9F1000F64
:104AEC00EAD07469102201A800F082F806238DF830
:104AFC00143001AD04F108031834186859682A46BB
:104B0C0003C20833A3421546F7D101A906A807AD85
:104B1C00FFF716FE0FCD3C1D0FC42B6823704946C2
:104B2C00CAE70098FFF712FB384615B0BDE8F083D2
:104B3C00024B034A1A6000225A60704738E7032080
:104B4C005C4E0B007047000038B5044614252A460D
:104B5C00002100F04DF82580402507492581284685
:104B6C00258200F02FF804496060284600F02AF8EE
:104B7C00E060204638BD00BF904E0B0030B50E4DA6
:104B8C002978BFF35B8F11F0010487B011D128464F
:104B9C00FFF785FA68B101A8FFF7D6FF01AA2146F5
:104BAC000648FFF7C3FE2846FFF77EFA044800F0DC
:104BBC000BF8024807B030BD40E7032044E7032060
:104BCC00514B0B00FFF767BA002301461A461846F3
:104BDC0000F044B80A44914200F1FF3300D1704711
:104BEC0010B511F8014B03F8014F9142F9D110BDEA
:104BFC0002440346934200D1704703F8011BF9E7C6
:104C0C0038B5104B1D68AB6B0446B3B91820FFF7D1
:104C1C00D9FB0246A86320B90B4B0C484221FFF785
:104C2C00E1FB0B490B4BC0E900130B4B83600B23CF
:104C3C00838100210120C2E90401AB6B00221C61BD
:104C4C005A6138BD68E60320914E0B00A84E0B004C
:104C5C000E33CDAB34126DE6ECDE05002DE9F843D6
:104C6C00DFF8B8800646D8F800001F460D4691467E
:104C7C0000F056F8254B1C6834B9254C1C60254BAC
:104C8C0013B11B68C4F8883063681F2B07DDD8F894
:104C9C00000000F047F84FF0FF30BDE8F8834EB34A
:104CAC00D4F8880088B91C4B23B9D8F8000000F060
:104CBC0038F8F0E74FF48470FFF784FB0028F4D049
:104CCC000023C0E94033C4F88800636840F823909F
:104CDC0001229A4000EB8301D0F800311343C0F855
:104CEC000031022EC1F8807002BFD0F8043113439A
:104CFC00C0F804316368D8F800005A1C02336260B3
:104D0C0044F8235000F00EF80020C6E7E8E7032033
:104D1C005CE7032000000000D1430B00CCE603202D
:104D2C0070477047704700002D400B0069400B0026
:104D3C0091400B0095400B000000000000000000AB
:104D4C00000000006F440B0065440B005B440B003B
:104D5C0051440B0045440B0039440B002D4A0B0009
:104D6C00354A0B002D440B0025440B001B440B0053
:104D7C0011440B00654A0B006170700025592D25FC
:104D8C006D2D25645425483A254D3A2553257A0036
:104D9C0061736374696D6500000000000000000021
:104DAC00CD460B00BD460B00BF460B0000000000BB
:104DBC0000000000B3470B001B480B00F1470B0031
:104DCC00C1440B00E3470B00B5470B00C5470B0074
:104DDC0015480B00D5470B00AD470B000000000039
:104DEC0000000000BD480B0029490B0001490B00D5
:104DFC00C1440B00D1480B00ED480B00DF480B0001
:104E0C00FB480B00BF480B00C3480B000000000020
:104E1C0000000000CD490B00C3490B00B9490B0041
:104E2C006F490B00AD490B00A1490B002D4A0B003B
:104E3C00354A0B0095490B008D490B0083490B003B
:104E4C0079490B00654A0B000000000000000000CF
:104E5C00ED490B00F7490B00014A0B000B4A0B0004
:104E6C00154A0B00214A0B002D4A0B00354A0B004A
:104E7C003D4A0B00494A0B00514A0B005B4A0B00A0
:104E8C00654A0B00005245454E54206D616C6C6FA9
:104E9C006320737563636565646564002F6D6E7460
:104EAC002F776F726B73706163652F776F726B7393
:104EBC00706163652F4743432D31302D70697065E8
:104ECC006C696E652F6A656E6B696E732D47434313
:104EDC002D31302D706970656C696E652D34385FBD
:104EEC0032303230313132345F3136303631383065
:104EFC003634312F7372632F6E65776C69622F6E47
:104F0C0065776C69622F6C6962632F7374646C696A
:104F1C00622F72616E642E630000000031410B0041
:104F2C0079440B008D440B00B1440B0055450B002C
:104F3C0065450B0079450B00D9490B003D4B0B0027
:104F4C00040000001400000003000000474E550050
:104F5C00AD436220A9750BFCEC66C8C457E0401C3D
:044F6C0093E869ED70
:104F70009C4D0B006CE603200000000000000000C8
:104F80000000000000000000000000000000000021
:104F90000000000000000000000000000000000011
:104FA0000000000000000000000000000000000001
:104FB00000000000000000000000000000000000F1
:104FC00000000000000000000000000000000000E1
:0C4FD0000000000000000000ECE70320DF
:044FDC0000000000D1
:104FE60000000102030405060708090A0B0C0D0E52
:104FF6000F101112131415161718191A1B1C1D1E43
:045006001F2028003F
:04500A00785634128E
:04000003B000401CED
:00000001FF
